:020000040800F2
:10000000000002205D220008E91C0008EB1C00082B
:10001000ED1C0008EF1C0008F11C000800000000A7
:10002000000000000000000000000000F31C0008B9
:10003000F51C000800000000F71C0008F91C00086F
:10004000AD220008AD220008AD220008AD22000854
:10005000AD220008AD220008AD220008AD22000844
:10006000AD220008AD220008AD220008AD22000834
:10007000AD220008AD220008AD220008AD22000824
:10008000AD220008AD220008AD220008AD22000814
:10009000AD220008AD220008AD220008AD22000804
:1000A000AD220008011D0008AD220008AD220008A5
:1000B000AD220008111D0008AD220008AD22000885
:1000C000AD220008AD220008AD220008AD220008D4
:1000D000AD220008AD220008AD220008AD220008C4
:1000E000AD220008AD220008AD220008AD220008B4
:1000F000AD220008AD220008AD220008AD220008A4
:10010000AD220008AD220008AD220008AD22000893
:10011000AD220008AD220008AD220008AD22000883
:10012000AD220008AD220008AD220008AD22000873
:10013000AD220008AD220008AD220008AD22000863
:10014000AD220008AD220008AD220008AD22000853
:10015000AD220008AD220008AD220008AD22000843
:10016000AD220008AD220008AD220008AD22000833
:10017000AD220008AD220008AD22000800000000FA
:08018000AD220008AD220008C9
:1001880010B5054C237833B9044B13B10448AFF3C9
:1001980000800123237010BD5401002000000000DE
:1001A800A83F000808B5034B1BB103490348AFF348
:1001B800008008BD0000000058010020A83F00088A
:1001C80080F0004002E000BF81F0004142001FBF04
:1001D8005FEA410392EA030F7FEA226C7FEA236C0D
:1001E8006AD04FEA1262D2EB1363C1BFD218414002
:1001F80048404140B8BF5B42192B88BF704710F098
:10020800004F40F4000020F07F4018BF404211F03A
:10021800004F41F4000121F07F4118BF494292EAA2
:10022800030F3FD0A2F1010241FA03FC10EB0C00CE
:10023800C3F1200301FA03F100F0004302D549425B
:1002480060EB4000B0F5000F13D3B0F1807F06D308
:1002580040084FEA310102F10102FE2A51D2B1F100
:10026800004F40EBC25008BF20F0010040EA0300F5
:100278007047490040EB0000013A28BFB0F5000F75
:10028800EDD2B0FA80FCACF1080CB2EB0C0200FA2B
:100298000CF0AABF00EBC25052421843BCBFD0407A
:1002A8001843704792F0000F81F4000106BF80F4F4
:1002B80000000132013BB5E74FEA41037FEA226CB7
:1002C80018BF7FEA236C21D092EA030F04D092F082
:1002D800000F08BF0846704790EA010F1CBF0020B6
:1002E800704712F07F4F04D1400028BF40F0004013
:1002F800704712F100723CBF00F50000704700F033
:10030800004343F0FE4040F4000070477FEA226259
:1003180016BF08467FEA23630146420206BF5FEA2A
:10032800412390EA010F40F4800070474FF000032A
:1003380004E000BF10F0004348BF40425FEA000CF1
:1003480008BF704743F0964301464FF000001CE099
:1003580050EA010208BF70474FF000030AE000BFEF
:1003680050EA010208BF704711F0004302D540422D
:1003780061EB41015FEA010C02BF8446014600209F
:1003880043F0B64308BFA3F18053A3F50003BCFABA
:100398008CF2083AA3EBC25310DB01FA02FC634467
:1003A80000FA02FCC2F12002BCF1004F20FA02F26E
:1003B80043EB020008BF20F00100704702F1200261
:1003C80001FA02FCC2F1200250EA4C0021FA02F2C2
:1003D80043EB020008BF20EADC7070474FF0FF0CC7
:1003E8001CEAD0521EBF1CEAD15392EA0C0F93EAC2
:1003F8000C0F6FD01A4480EA010C400218BF5FEA64
:1004080041211ED04FF0006343EA501043EA5111D6
:10041800A0FB01310CF00040B1F5000F3EBF4900D0
:1004280041EAD3715B0040EA010062F17F02FD2AD4
:100438001DD8B3F1004F40EBC25008BF20F00100B7
:10044800704790F0000F0CF0004C08BF49024CEACE
:10045800502040EA51207F3AC2BFD2F1FF0340EA60
:10046800C250704740F400004FF00003013A5DDCD1
:1004780012F1190FDCBF00F000407047C2F1000212
:10048800410021FA02F1C2F1200200FA02FC5FEAFF
:10049800310040F1000053EA4C0308BF20EADC7049
:1004A800704792F0000F00F0004C02BF400010F4BB
:1004B800000F013AF9D040EA0C0093F0000F01F068
:1004C800004C02BF490011F4000F013BF9D041EA8A
:1004D8000C018FE70CEAD15392EA0C0F18BF93EA8C
:1004E8000C0F0AD030F0004C18BF31F0004CD8D1B6
:1004F80080EA010000F00040704790F0000F17BF3D
:1005080090F0004F084691F0000F91F0004F14D082
:1005180092EA0C0F01D142020FD193EA0C0F03D1DA
:100528004B0218BF084608D180EA010000F00040DD
:1005380040F0FE4040F40000704740F0FE4040F4B8
:10054800400070474FF0FF0C1CEAD0521EBF1CEA57
:10055800D15392EA0C0F93EA0C0F69D0A2EB030275
:1005680080EA010C49024FEA402037D04FF080530F
:1005780043EA111143EA10130CF000408B4238BFD4
:100588005B0042F17D024FF4000C8B4224BF5B1AE2
:1005980040EA0C00B3EB510F24BFA3EB510340EA30
:1005A8005C00B3EB910F24BFA3EB910340EA9C00DE
:1005B800B3EBD10F24BFA3EBD10340EADC001B014E
:1005C80018BF5FEA1C1CE0D1FD2A3FF650AF8B42F2
:1005D80040EBC25008BF20F0010070470CF0004CFF
:1005E8004CEA50207F32C2BFD2F1FF0340EAC2502A
:1005F800704740F400004FF00003013A37E792F0EB
:10060800000F00F0004C02BF400010F4000F013A48
:10061800F9D040EA0C0093F0000F01F0004C02BF43
:10062800490011F4000F013BF9D041EA0C0195E7AC
:100638000CEAD15392EA0C0F08D142027FF47DAF45
:1006480093EA0C0F7FF470AF084676E793EA0C0F35
:1006580004D14B023FF44CAF08466EE730F0004C33
:1006680018BF31F0004CCAD130F000427FF45CAFC3
:1006780031F000437FF43CAF5FE700BF4FF0FF3C31
:1006880006E000BF4FF0010C02E000BF4FF0010C84
:100698004DF804CD4FEA40024FEA41037FEA226C4D
:1006A80018BF7FEA236C11D001B052EA530C18BF6F
:1006B80090EA010F58BFB2EB030088BFC81738BFD4
:1006C8006FEAE17018BF40F0010070477FEA226CC2
:1006D80002D15FEA402C05D17FEA236CE4D15FEABE
:1006E800412CE1D05DF8040B704700BF84460846F2
:1006F8006146FFE70FB5FFF7C9FF002848BF10F1B3
:10070800000F0FBD4DF808EDFFF7F4FF0CBF0120F7
:1007180000205DF808FB00BF4DF808EDFFF7EAFF81
:1007280034BF012000205DF808FB00BF4DF808ED3C
:10073800FFF7E0FF94BF012000205DF808FB00BF31
:100748004DF808EDFFF7D2FF94BF012000205DF8B7
:1007580008FB00BF4DF808EDFFF7C8FF34BF0120C4
:1007680000205DF808FB00BF4FEA4002B2F1FE4FDF
:100778000FD34FF09E03B3EB12620DD94FEA00235B
:1007880043F0004310F0004F23FA02F018BF404234
:1007980070474FF00000704712F1610F01D142021B
:1007A80005D110F0004008BF6FF0004070474FF0CF
:1007B8000000704742000ED2B2F1FE4F0BD34FF04B
:1007C8009E03B3EB126209D44FEA002343F00043BF
:1007D80023FA02F070474FF00000704712F1610FE2
:1007E80001D1420202D14FF0FF3070474FF00000B4
:1007F800704700BF53B94AB9002908BF00281CBF79
:100808004FF0FF314FF0FF3001F052B9ADF1080C55
:100818006DE904CE00F006F8DDF804E0DDE9022316
:1008280004B070472DE9F047089D8E460446884677
:10083800002B4AD18A42174662D9B2FA82F64EB1E3
:10084800C6F1200301FA06F820FA03F3B74043EA99
:100858000808B4404FEA174E1FFA87FCB8FBFEF1B0
:10086800230C0EFB118843EA084301FB0CF29A4261
:1008780009D9FB1801F1FF3080F0EA809A4240F272
:10088800E78002393B449A1AA3B2B2FBFEF00EFB92
:10089800102243EA024300FB0CFC9C4509D9FB18D3
:1008A80000F1FF3280F0D6809C4540F2D3803B4473
:1008B800023840EA0140A3EB0C0300211DB1F340CC
:1008C8000022C5E90032BDE8F0878B4205D90DB199
:1008D800C5E9000100210846F5E7B3FA83F10029CC
:1008E80046D1734502D3824200F20581841A6EEB29
:1008F800030201209046002DE5D0C5E90048E2E753
:10090800002A00F09080B2FA82F6002E40F0A4800F
:100918008A1A030C4FEA174E80B2BCB20121B2FB0F
:10092800FEFC0EFB1C2243EA024304FB0CF29A4233
:1009380007D9FB180CF1FF3802D29A4200F2E08086
:10094800C4469B1AB3FBFEF20EFB123340EA034384
:1009580002FB04F49C4207D9FB1802F1FF3002D2D3
:100968009C4200F2CA8002461B1B42EA0C40A5E7E3
:10097800C1F120068B4022FA06F71F430EFA01F454
:1009880020FA06F32EFA06FE4FEA1749234300FA27
:1009980001F81FFA87FCBEFBF9F01C0C09FB10EEEE
:1009A80044EA0E4400FB0CFEA64502FA01F209D9FE
:1009B8003C1900F1FF3A80F09C80A64540F29980EE
:1009C80002383C44A4EB0E041FFA83FEB4FBF9F38F
:1009D80009FB13444EEA044403FB0CFCA44508D964
:1009E8003C1903F1FF3E80F08280A4457FD9023B89
:1009F8003C4443EA0040A4EB0C04A0FB02EC644531
:100A08007346E14662D35FD05DB1B8EB030264EB95
:100A1800090404FA06F622FA01F31E43CC40C5E99C
:100A2800006400214FE7B1FBF2FC010C41EA0E41E2
:100A380080B240EA01423B4638463C46B846BE468C
:100A48002026B1FBF7F1A2EB080241EA0C4166E768
:100A5800014618E710462CE7C6F120022EFA02F3E9
:100A6800B740B14020FA02F24FEA174E0A43B3FBEF
:100A7800FEF8BCB20EFB1833110C41EA034108FB27
:100A880004F9B04089454FEA104380B23ED979183D
:100A980008F1FF3C01D289451FD8A1EB0901B1FB40
:100AA800FEF909FB04F80EFB191192B242EA014261
:100AB800424529D2BA1809F1FF31C4D24245C2D2FF
:100AC800A9F102013A44BEE7F0459DD2BEEB02030C
:100AD8006CEB070C0138E14696E7A7EB0909494496
:100AE800A8F1020CB1FBFEF909FB04F8DBE7734639
:100AF8007FE7504666E70846FDE63B44023A33E79F
:100B0800ACF1020C3B441CE749469CE7A1EB090108
:100B1800C446B1FBFEF909FB04F8C4E703685A00B0
:100B28004CBF43F0004323F000431844704700BF14
:100B38002DE9F04759B301F1FF38054616464746F7
:100B48004FF0000A0AEB070101EBD171491005EBE0
:100B5800C1094846FFF7E2FF88454FEAC10403464A
:100B680010D004F10800B342284407D8FFF7D6FF95
:100B78000138B04208D201F1010AE3E78A4506D0FC
:100B88004F1EDFE7B042F9D84846BDE8F0874FF07E
:100B980000094846BDE8F087012809D0022805D099
:100BA800044B00280CBF18460020704702487047C5
:100BB80002487047851200088D1200088912000843
:100BC80030B5224B83B004468D1E43B301A9284695
:100BD800AFF30080F0B101992A46FFF7A9FF01465B
:100BE800C0B1FFF79BFF4B68A064012B2BD0002BF3
:100BF80001F1040025DBFFF791FF0023236503685B
:100C0800E064002B12DBFFF789FF03460020236115
:100C180003B030BD00230920236103B030BD0C4B65
:100C28000C49C91AC91018460191D5E7C3F30360E6
:100C3800FFF7B2FF031E0CBF09200020236103B099
:100C480030BD0123DAE700230520E0E700000000BB
:100C58002C400008444100080368DA0710B5044630
:100C680006D49B0700F1500009D500F08FFC2368DB
:100C7800590709D51A070ED5DB0613D510BD00F0A4
:100C88007DFC23685907F5D404F1D80000F086FCF0
:100C980023681A07F0D404F5AC7000F087FC2368C9
:100CA800DB06EBD404F5EC70BDE8104000F0C2BCE4
:100CB8000346006800B11844704700BF0920704718
:100CC800704700BF70B504460E46316C2046FFF7EA
:100CD80077FF054688B9326C62612369324621463E
:100CE800012098470828F0D0072806D12846316CFB
:100CF800FFF7E6FF301D00F035FC03F05FF800BF9A
:100D08002DE9F04701F1040CC768D0F818800646B1
:100D18009146BCE80F00ADF5767D03AC0FC4BCE886
:100D28000F000FC4BCE80F000FC49CE80F0002AD11
:100D38004FF0000E84E80F00C5F800E021E02B6CAE
:100D480073614FF4F47229467CA803F0B7F833694D
:100D58007CAA3146504698478A9BAB644946CDE900
:100D680000588246334601203246B847814630BB98
:100D78004FF4F4727CA9284603F0A0F8BAF1080FE2
:100D88001AD1296C3046FFF71BFF09F109090446FF
:100D98005FFA89FA0028D2D0AB6BAB643246CDE952
:100DA800005833464AF010010120B84738B92046A8
:100DB8000DF5767DBDE8F087BAF1070F05D0092457
:100DC80020460DF5767DBDE8F0874846296CFFF78B
:100DD80077FF03A800F0C6FB806C7047F0B5CB6BBB
:100DE800FBB001F1040C0B640E460546BCE80F008D
:100DF80001AC0FC4BCE80F000FC4BCE80F000FC45F
:100E08009CE80F004FF0FF3784E80F00009706E0DA
:100E18002B696A46294698470828044608D110993C
:100E28002846FFF7CDFE0028F2D009207BB0F0BDA0
:100E38006846FFF711FF062CF7D131462846FFF721
:100E480041FF00BFC160D96B826119640022194655
:100E580056E700BF70B5C66843690B64AEB903694D
:100E68000A4604460D46014602209847072805D041
:100E780008280FD129462046FFF724FF3046296C61
:100E8800FFF71EFF281D00F06DFB0122FFF738FF5A
:100E980002F094FF02F092FFC2681AB1CA6B0A64AA
:100EA80000222DE79AE700BF704700BF836801461C
:100EB8000BB1012018477047052915D8DFE801F064
:100EC8000A031403030501207047009A436C13605A
:100ED8000020704743B90F2A06D800EB8202002091
:100EE8005368009A136070470220704700B585B0B8
:100EF8000A46002303A900911946FFF7DDFF03986E
:100F080005B05DF804FB00BF052915D8DFE801F03E
:100F18000A031403030501207047009B1B68436400
:100F28000020704743B90F2A06D8009B00EB8202C5
:100F38001B685360002070470220704710B584B0CA
:100F4800002303AC039200940A461946FFF7DCFF1E
:100F580004B010BD70B5D36BADF5107D02F1040C73
:100F6800136405460C46BCE80F000DF15C0EAEE8B4
:100F78000F00BCE80F00AEE80F00BCE80F00AEE8B9
:100F88000F009CE80F004FF0FF368EE80F00169612
:100F980010E0FFF7D3FF214616A8A847034616AA74
:100FA8000820694683B9049B9847052806460CD053
:100FB800092809D026996846FFF702FE03460C2146
:100FC8006A4616A8002BE4D0092616A8FFF744FEA7
:100FD80030460DF5107D70BD2DE9F04F1646CA6CF0
:100FE80089B00D4652F8041B069200F0030C002B42
:100FF80079D00C0C8DF81D400904E4B2059102EB80
:10100800840202218DF81C10296DBCF1020F08BF63
:10101800AA6B11F0010809D005A9304600F0A4FB1D
:10102800002856D1082009B0BDE8F08F1768002FB6
:10103800F2D000F00801CDE90118E3469A46BAF16A
:10104800020F4CD01788548802F10409AA6C24F0C6
:1010580001030F21304603EB0208FFF747FF8045E5
:101068003BD827F0010202EB0803834294BF002318
:101078000123640004F0020407F001072743012F4D
:101088004ED0022F35D027BBBBF1000F02D0002B6A
:1010980040F0D38009F104021768002FCFD105A9C9
:1010A8003046DDF8088000F05FFB90B9B8F1000F1A
:1010B800B8D00F213046FFF719FF0E2102463046FF
:1010C800FFF73CFF6C4A0F213046FFF737FF072038
:1010D80000E0092009B0BDE8F08F0023C9E7546893
:1010E80002F10809B2E7090205918DF81D300321C4
:1010F80088E7D9F8004024F00048BBF1000F47D139
:101108002BB1019B002B5CD0B8F1000F59D0002CFB
:1011180001DA09F1040908F1010209EB8202BBE7CF
:10112800BBF1000F1CD1C3B1D9F80430D9F80020A5
:10113800991C4FEAD272CCD005F1580401330494BB
:1011480000F08E8009F10400FFF7B2FD04AB014600
:101158002846AFF30080002859D109F108029BE71F
:101168000D213046FFF7C2FE2C6A8442F5D1AB6AE6
:101178009945F2D14846FFF7D1FC0F210246304687
:10118800FFF7DCFE2A4600213046FFF7D7FE9EE730
:101198000D213046FFF7AAFE2F6A8742B7D1AB6A06
:1011A8009945B4D100240423C5E90B434B44C5F841
:1011B80028806B63D9F80030A34258DB01230293DF
:1011C800A9E705F15803CDF80CB009F10407B346B7
:1011D80000241E460BE038460496FFF769FD0022FE
:1011E800014604AB2846AFF300800437F8B94445FC
:1011F80004F10104EFD10D215846FFF777FE049B57
:10120800C5F828900246C5E90823062062E7044687
:101218000D213046FFF76AFE049E2862022C04BFA7
:10122800EE6205F12C06C5E90969062052E75E461B
:10123800D9F80040DDF80CB069E74846FFF76EFCC6
:1012480009F104030446AB632846AFF30080002885
:101258003FF43FAF22460F213046FFF76FFE36E7D7
:1012680030460D21FFF742FE26462862DBE708F1EB
:10127800010209EB82007EE7000000000023ABE6D4
:101288000123A9E60223A7E62DE9F0410646C4B0EA
:101298001446052900F2E880DFE811F012002D005D
:1012A800E60066008B000600836B002C40F0DC80B3
:1012B80053F8042B42648363002044B0BDE8F081F6
:1012C800002B40F0D180856B1FFA84FC012006F1C9
:1012D800040E00FA03F111EA0C0F2A4604D052F862
:1012E800041B4EF8231015460133102BF1D1A70427
:1012F800E2D4B563E0E7012B4FEA1447A4B27CD0EF
:10130800052B40F0B18007EB0408B8F1200F00F27C
:10131800AB800F2F40F2AA80002CCDD00268550771
:1013280000F1FF80019302AD284600F03BF964000C
:10133800A7F11000B26B019B611E05EBC0000131E3
:10134800043802EB810152F8044B40F8044F8A42FA
:10135800F9D1012B00F0CD800F2FB26340F2E98064
:10136800284600F01BF9A7E7032B7DD1A7B207EBAE
:101378001443102B4FEA144476D80368190700F178
:10138800A48022AD284600F033F97A00B06B05EB53
:10139800C404531E42B1011B625844F8042B013B9C
:1013A8005A1CF9D100EBC700B063284600F0FEF8DC
:1013B80082E7002B58D1102C56D80368D8067CD465
:1013C80022AD284600F040F9B76B294600234FF0BC
:1013D800010C0CFA03F22242384603F1010303D050
:1013E80050F8042B0A600746042B01F10401F0D1E0
:1013F800B763284600F01EF95EE73A19102A33D879
:10140800102F31D00268D10708D5304622F00302E8
:1014180040F8502B019300F0B5F8019B019322ADE1
:10142800284600F0AFF8B16B019B002C62D0620037
:10143800013A05EBC7004FF000080132043801EB10
:10144800820251F8044B40F8044F9142F9D1B8F1A7
:10145800000F42D1012B4DD00F2FB1633FF62CAFB7
:10146800284600F093F827E7022026E70268B8F13B
:10147800100F02F0010143D951B122F0010242F0EC
:10148800020240F8502B019300F084F83268019B67
:101498000193500751D422AD284600F07BF802A8EA
:1014A80000F080F8C7F110025200B16B019BA8F15F
:1014B8001008013A05EBC700BFE723F010033360BB
:1014C80006F5EC7000F0C0F87AE723F00803036033
:1014D80000F5AC7000F08CF853E7102F384638BF91
:1014E80010204FEA4801103802AD013905EBC00061
:1014F80025E722AD0431B163284600F03FF8DBE66A
:1015080019BB22AD2846019300F044F8B16B002CBA
:10151800A6D06200019B013A05EBC7004FF0000816
:101528008BE722F0040240F8D82B019300F03AF838
:10153800F9E622A800F02AF812E7304622F0040261
:1015480040F8D82B00F02EF8A5E7304622F001022B
:1015580042F0020240F8502B019300F01BF8019B67
:10156800CFE700BF00F1340191E838009C46A64659
:101578004CF8045D90E8FF0FE54600BD90EC210BA8
:10158800704700BF80EC210B704700BF90EC200B28
:10159800704700BF80EC200B704700BFD0EC200BD9
:1015A800704700BFC0EC200B704700BFF0EC020191
:1015B800F0EC0211F0EC0221F0EC0231F0EC024107
:1015C800F0EC0251F0EC0261F0EC0271F0EC0281F7
:1015D800F0EC0291F0EC02A1F0EC02B1F0EC02C1E7
:1015E800F0EC02D1F0EC02E1F0EC02F1704700BF40
:1015F800E0EC0201E0EC0211E0EC0221E0EC023147
:10160800E0EC0241E0EC0251E0EC0261E0EC027136
:10161800E0EC0281E0EC0291E0EC02A1E0EC02B126
:10162800E0EC02C1E0EC02D1E0EC02E1E0EC02F116
:10163800704700BFB0FC0181B0FC0191B0FC01A172
:10164800B0FC01B1704700BFA0FC0181A0FC019172
:10165800A0FC01A1A0FC01B1704700BFEC4600B599
:101668002DE900502DE9FF1F4FF000032DE90C0074
:1016780001A9FFF7B3FBDDF840E012B0704700BFE7
:10168800EC4600B52DE900502DE9FF1F4FF000038F
:101698002DE90C0001A9FFF7DDFBDDF840E012B0F1
:1016A800704700BFEC4600B52DE900502DE9FF1F3B
:1016B8004FF000032DE90C0001A9FFF7EDFBDDF861
:1016C80040E012B0704700BFEC4600B52DE900506D
:1016D8002DE9FF1F4FF000032DE90C0001ABFFF7C8
:1016E800B1FBDDF840E012B0704700BFEC4600B532
:1016F8002DE900502DE9FF1F4FF000032DE90C00E4
:1017080001AAFFF727FCDDF840E012B0704700BFE0
:10171800027A03467AB9427AA2B14168013A10B412
:101728004272086803220C1D1A7202025C60000EE5
:1017380010BC1A6070470068013A1A7202021A60F7
:10174800000E7047B020704700B585B003AA00238B
:10175800009219460C22FFF7AFFB039805B05DF81D
:1017680004FB00BFF0E700BF2DE9F043064685B053
:101778000D464FF000082846FFF7CAFFB028044678
:1017880000F01C8107065BD500F0F003A02B1AD0EF
:1017980030D8802B00F08280902B27D100F00D03E9
:1017A8000D2B23D002AF002300F00F02194600973B
:1017B8003046FFF781FB002300970D22194630467B
:1017C800FFF7A2FBD7E7C34303F007034FF47F6299
:1017D8001A41010702F47F6201D542F480420023D6
:1017E80019463046FFF750FD0028C4D0092005B03F
:1017F800BDE8F083B02B68D0C02B3DD1C62800F0DF
:10180800CA80C72800F0DF8000F0F803C02B00F082
:10181800EC80C82800F0F780C928E7D12846FFF7F0
:1018280077FF020300F00F0002F470220130024338
:10183800012105233046FFF727FD00289BD0D5E777
:101848008300DBB21F1D0DF1080900231946CDF8EE
:1018580000900D223046FFF72FFB029BCDF8009039
:1018680060064CBFDF1BFF1800230D2219463046C7
:101878000297FFF749FB7EE700F0F803D02BB5D1BC
:1018880000F007020132052342F40022012130460C
:10189800FFF7FAFC00283FF46EAFA7E72846FFF7EA
:1018A80037FF24022043B0F5004F9FD004010023E6
:1018B800A2B219463046FFF7E7FC002896D114F487
:1018C800004F18BF4FF0010855E7A0F1B103042BF2
:1018D80000F2B580DFE803F05529160C030003AACF
:1018E8000023009219460D223046FFF7E5FA42E739
:1018F80000231A4605213046FFF7C6FC00283FF4AE
:101908003AAF73E72846FFF703FF020300F00F0022
:10191800013002F470220123024319463046FFF7D2
:10192800B3FC00283FF427AF60E700230DF1080956
:101938000D221946CDF800903046FFF7BDFA28462B
:10194800FFF7E6FE0206029C4FF002070BD500F0F7
:101958007F00B840044428460294FFF7D9FE0306E6
:1019680007F10707F3D4B840002304F501740444D1
:10197800CDF800900D22194630460294FFF7C4FABC
:10198800F9E62846FFF7C4FE431EDBB20E2B0246DB
:101998007FF625AF2AE72846FFF7BAFE020300F0D4
:1019A8000F00013002F47022032302431946304627
:1019B800FFF76AFC00283FF4DEAE17E7B8F1000F26
:1019C8002DD0002013E72846FFF7A2FE431EDBB206
:1019D8000E2B02463FF60AAF002304213046FFF7DC
:1019E80053FC00283FF4C7AE00E700F00F020132B5
:1019F800032342F4202219463046FFF745FC00280D
:101A08003FF4B9AEF2E62846FFF782FE00F0F00296
:101A180000F00F031032013343EA023208E702AC48
:101A28004346414600940E223046FFF745FA0F22FE
:101A38000094434641463046FFF766FAC1E700F096
:101A4800FC03B42B3FF4D2AE00F0070201320123AD
:101A580042F4002219463046FFF716FC00283FF4EE
:101A68008AAEC3E610B5C26C536884B04FF0030C5D
:101A780008321C0208461B0E01A9019402928DF837
:101A88000CC08DF80D30FFF76FFE04B010BD00BF1D
:101A980008B5FFF767FE806C08BD00BF08B5FFF703
:101AA80061FEC06CC37900EB8300083008BD00BF3D
:101AB800704700BF2DE9F0418CB0002407940894CA
:101AC80009940A940B9400943E4B1A6B42F040021E
:101AD8001A631A6B02F040020092009A01941A6B82
:101AE80042F001021A631A6B02F001020192019A94
:101AF80002941A6B42F002021A631A6B02F0020295
:101B08000292029A03941A6B42F480721A631A6B57
:101B180002F480720392039A04941A6B42F08002D2
:101B28001A631A6B02F080020492049A05941A6BE5
:101B380042F004021A631A6B02F004020592059A35
:101B480006941A6B42F010021A631B6B03F0100321
:101B58000693069BDFF8708022464FF4807140465A
:101B680000F07EFD194F22464FF4E051384600F050
:101B780077FD174E22464FF42051304600F070FD95
:101B88004FF4807307930125089509940A9407A9CF
:101B9800404600F06BFC4FF4E05307930895099416
:101BA8000A9407A9384600F061FC4FF420530793C4
:101BB800089509940A9407A9304600F057FC0CB020
:101BC800BDE8F0810038024000080240001C0240D5
:101BD8000010024072B6FEE700B595B03022002131
:101BE80008A802F0F2F800230393049305930693E0
:101BF800079301931F4A116C41F080511164126CD4
:101C080002F080520192019A02931B4A116841F432
:101C180080411160126802F480420292029A022204
:101C2800089201210B9110210C910E920F93082319
:101C38001093A823119312920423139308A800F079
:101C48001FFD98B90F2303930223049300230593E0
:101C58004FF4A05306934FF480530793052103A82C
:101C680000F05EFF20B915B05DF804FBFFF7B2FF86
:101C7800FFF7B0FF003802400070004008B500F0E0
:101C880039FBFFF7A9FFFFF715FF00F00BF900F08C
:101C98007DF900F0D3F900F045FA00F05DFA02F0A2
:101CA80043F802F061F8FCE782B0002100910B4B89
:101CB8005A6C42F480425A645A6C02F48042009290
:101CC800009A01911A6C42F080521A641B6C03F05E
:101CD80080530193019B02B0704700BF0038024057
:101CE800FEE7FEE7FEE7FEE7FEE77047704770474E
:101CF80008B500F019FB08BD08B5024801F0B1F8B5
:101D080008BD00BF0002002008B5024801F0A9F88C
:101D180008BD00BFB80100200120704708B502F0D7
:101D2800A1F8162303604FF0FF3008BD08B54FF047
:101D3800FF31FFF7F3FFFEE77047000000B585B0FD
:101D48000368204A934208D01F4A934219D01F4A79
:101D580093422AD005B05DF804FB002101911C4B89
:101D68005A6C42F001025A645B6C03F00103019360
:101D7800019B0A46192000F051FB192000F05EFB78
:101D8800E8E700210291124B1A6C42F002021A6431
:101D98001B6C03F002030293029B0A461D2000F00D
:101DA8003DFB1D2000F04AFBD4E700230393084BBA
:101DB8005A6C42F002025A645B6C03F0020303930C
:101DC800039BC7E7000001400004004000040140F5
:101DD8000038024000B589B00023039304930593AB
:101DE800069307930368284A934208D0274A9342E8
:101DF8001DD0274A934230D009B05DF804FB002378
:101E08000093244B1A6B42F010021A631B6B03F009
:101E180010030093009B4FF4804303930223049321
:101E28000123079303A91C4800F020FBE4E70023E3
:101E38000193184B1A6B42F004021A631B6B03F0F0
:101E480004030193019B4023039302230493079304
:101E580003A9124800F00AFBCEE7002302930D4BBA
:101E68001A6B42F480721A631B6B03F4807302933B
:101E7800029B40230393022304930323079303A99C
:101E8800074800F0F3FAB7E70000014000040040FB
:101E980000040140003802400010024000080240DF
:101EA8000020024010B596B00024129413941494A4
:101EB80015941094119409940A940B940C940D940D
:101EC8000E940F942022214601A801F07EFF2D4890
:101ED8002D4B0360A723436084604FF6FF73C360F4
:101EE800046144618023836101F0D2F8002837D16E
:101EF8004FF48053129312A9224801F02EFA0028B9
:101F080031D1204801F01CF900282FD1002310936B
:101F1800119310A91B4801F09FFC50BB6023099343
:101F280000230A930B930D930E930F930C2209A988
:101F3800144801F098F9F8B9002301930293039328
:101F4800049305934FF400520692089301A90D4893
:101F580001F0C8FC98B90B48FFF73CFF16B010BD5C
:101F6800FFF738FEC4E7FFF735FECAE7FFF732FE92
:101F7800CCE7FFF72FFED1E7FFF72CFEDCE7FFF7F2
:101F880029FEE8E7000200200000014000B58FB0FC
:101F980000230A930B930C930D93089309930193D1
:101FA8000293039304930593069307932148224AC7
:101FB8000260A722426083604FF6FF72C26003612D
:101FC8008023836101F064F820BB4FF480530A93A7
:101FD8000AA9184801F0C1F9F8B9164801F0B0F893
:101FE800F0B900230893099308A9124801F034FCBA
:101FF800C8B960230193002202920392059201A9B5
:102008000C4801F030F988B90A48FFF7E3FE0FB031
:102018005DF804FBFFF7DEFDD7E7FFF7DBFDDCE744
:10202800FFF7D8FDDDE7FFF7D5FDE2E7FFF7D2FDC3
:10203800EAE700BFB80100200004004010B596B0E0
:1020480000241294139414941594109411940994E0
:102058000A940B940C940D940E940F94202221460C
:1020680001A801F0B2FE2D482D4B03606B2343609D
:10207800846044F61F63C36004614461846101F0B5
:1020880007F8002837D14FF48053129312A9234838
:1020980001F063F9002831D1204801F025F8002823
:1020A8002FD100231093119310A91C4801F0D4FBE1
:1020B80050BB002309930A930B930C930D930E9333
:1020C8000F93042209A9154801F09EF8F8B90023D6
:1020D800019302930393049305934FF400520692DD
:1020E800089301A90D4801F0FDFB98B90B48FFF7CB
:1020F80071FE16B010BDFFF76DFDC4E7FFF76AFD6E
:10210800CAE7FFF767FDCCE7FFF764FDD1E7FFF704
:1021180061FDDCE7FFF75EFDE8E700BF7001002026
:102128000004014008B50A480A4B03604FF4E13344
:10213800436000238360C36003610C2242618361B2
:10214800C36101F083FC00B908BDFFF743FDFBE75D
:10215800900200200010014008B50A480A4B0360AD
:102168004FF41653436000238360C36003610C225D
:1021780042618361C36101F069FC00B908BDFFF7E2
:1021880029FDFBE7480200200014014000B58BB090
:102198000023059306930793089309930368284A35
:1021A800934205D0274A934225D00BB05DF804FB33
:1021B80000210191244B5A6C42F010025A645A6C67
:1021C80002F010020192019A02911A6B42F0020287
:1021D8001A631B6B03F002030293029BC02305934F
:1021E80002230693032308930723099305A9174895
:1021F80000F03CF9D9E700210391134B5A6C42F0E7
:1022080020025A645A6C02F020020392039A049145
:102218001A6B42F040021A631B6B03F040030493ED
:10222800049B4FF4844305930223069303230893E6
:102238000823099305A9064800F018F9B5E700BF77
:102248000010014000140140003802400004024020
:1022580000180240DFF834D0FFF76EFD0C480D4936
:102268000D4A002302E0D458C4500433C4188C42E9
:10227800F9D30A4A0A4C002301E013600432A2424F
:10228800FBD301F0F5FDFFF7F9FC704700000220D1
:10229800000000205401002054410008540100208F
:1022A80038060020FEE7000010B504460E4B1A78E9
:1022B8004FF47A73B3FBF2F30C4A1068B0FBF3F0F7
:1022C80000F0C0F868B90F2C01D901200AE00022FB
:1022D80021464FF0FF3000F0A1F8054B1C600020AC
:1022E80000E0012010BD00BF040000200000002015
:1022F8000800002008B50B4B1A6842F400721A60F7
:102308001A6842F480621A601A6842F480721A608D
:10231800032000F071F80F20FFF7C6FFFFF7C4FC99
:10232800002008BD003C0240034A1168034B1B789B
:102338000B441360704700BFD8020020040000203F
:10234800014B1868704700BFD802002038B5044612
:10235800FFF7F6FF0546B4F1FF3F02D0044B1B78A8
:102368001C44FFF7EDFF401BA042FAD338BD00BF65
:1023780004000020002807DB00F01F0240090123A9
:102388009340024A42F82030704700BF00E100E065
:10239800002808DB0901C9B200F1604000F561407E
:1023A80080F80013704700F00F000901C9B2014B13
:1023B8001954704714ED00E000B500F00700C0F1B3
:1023C800070CBCF1040F28BF4FF0040C031D062BAB
:1023D8000FD9C31E4FF0FF3E0EFA0CF021EA0001A0
:1023E80099400EFA03FE22EA0E0241EA02005DF865
:1023F80004FB0023EEE70000074AD36823F4E063F8
:102408001B041B0C000200F4E060034343F0BF63AD
:1024180043F40033D360704700ED00E010B5044684
:10242800054BD868C0F30220FFF7C6FF01462046D7
:10243800FFF7AEFF10BD00BF00ED00E008B5FFF7E5
:1024480099FF08BD0138B0F1807F0BD24FF0E0232F
:102458005861054AF02182F823100020986107226C
:102468001A6170470120704700ED00E000230F2B30
:1024780000F2EC8030B583B068E085684FEA430E1F
:10248800032404FA0EF425EA0405CC6804FA0EF4D1
:102498002C438460446824EA02044A68C2F30012A8
:1024A8009A40224342605FE0DC08083450F8242058
:1024B80003F00705AD004FF00F0E0EFA05FE22EAF5
:1024C8000E0E0A69AA4042EA0E0240F824205FE094
:1024D800072200E0002202FA0EF22A4302345C4D81
:1024E80045F824205B4A94686FEA0C0224EA0C053C
:1024F800D1F804E01EF4801F01D04CEA0405554CC5
:10250800A560E46802EA0405D1F804E01EF4001F9F
:1025180001D04CEA04054F4CE560646802EA040502
:10252800D1F804E01EF4003F01D04CEA0405494C00
:102538006560246822404D6815F4803F01D04CEA5C
:102548000402444C226001330F2B7DD801229A40AB
:102558000C6804EA020C32EA0404F4D14C6804F072
:102568000304013C012C88D94A6802F00302032ABB
:1025780009D0C4685D000322AA4024EA02048A68DC
:10258800AA402243C2604A6802F00302022A8BD0A2
:1025980004684FEA430E032202FA0EF224EA020408
:1025A8004A6802F0030202FA0EF2224302604A6805
:1025B80012F4403FC7D000220192274A546C44F4D9
:1025C80080445464526C02F480420192019A9C083F
:1025D800A51C1F4A52F8255003F0030E4FEA8E0E31
:1025E8000F2202FA0EF225EA02051C4A90423FF435
:1025F80071AF02F5806290421AD002F58062904273
:1026080018D002F58062904216D002F5806290429E
:1026180014D002F58062904212D002F58062904296
:1026280010D002F5806290423FF452AF082252E780
:10263800012250E702224EE703224CE704224AE730
:10264800052248E7062246E703B030BD704700BFC1
:1026580000380140003C01400038024000000240C0
:102668000AB181617047090481617047436901EAD1
:10267800030221EA030141EA024181617047000037
:10268800002800F0E08170B582B00446036813F0BA
:10269800010F3BD09F4B9B6803F00C03042B2CD0FD
:1026A8009C4B9B6803F00C03082B21D06368B3F59F
:1026B800803F4FD0B3F5A02F52D0964B1A6822F422
:1026C80080321A601A6822F480221A606368002B2C
:1026D80050D0FFF735FE05468E4B1B6813F4003FBC
:1026E80014D1FFF72DFE401B6428F5D90320B1E172
:1026F800884B5B6813F4800FD8D0864B1B6813F4A3
:10270800003F03D06368002B00F09F81236813F01B
:10271800020F54D07F4B9B6813F00C0F3ED07D4BBB
:102728009B6803F00C03082B33D0E368002B68D0B8
:10273800794B01221A60FFF703FE0546754B1B68AB
:1027480013F0020F54D1FFF7FBFD401B0228F5D907
:1027580003207FE16F4A136843F480331360B5E7C1
:102768006C4B1A6842F480221A601A6842F480326C
:102778001A60ABE7FFF7E4FD0546664B1B6813F4E8
:10278800003FC3D0FFF7DCFD401B6428F5D90320C8
:1027980060E1604B5B6813F4800FC6D15D4B1B682A
:1027A80013F0020F03D0E368012B40F05081594A1F
:1027B800136823F0F803216943EAC103136023680F
:1027C80013F0080F42D063696BB3534B0122C3F86F
:1027D800802EFFF7B5FD05464E4B5B6F13F0020FD9
:1027E80034D1FFF7ADFD401B0228F5D9032031E1B4
:1027F800484A136823F0F803216943EAC1031360C8
:10280800DDE7454B00221A60FFF79AFD0546414B6C
:102818001B6813F0020FD2D0FFF792FD401B02286D
:10282800F5D9032016E13C4B0022C3F8802EFFF7B0
:1028380087FD0546374B5B6F13F0020F06D0FFF795
:102848007FFD401B0228F5D9032003E1236813F01C
:10285800040F77D02F4B1B6C13F0805F33D100230C
:1028680001932C4B1A6C42F080521A641B6C03F0D3
:1028780080530193019B0125284B1B6813F4807F2B
:1028880023D0A368012B34D0052B38D0214B1A6FE5
:1028980022F001021A671A6F22F004021A67A3686D
:1028A800002B3DD0FFF74CFD06461A4B1B6F13F06B
:1028B800020F46D1FFF744FD801B41F2883398424E
:1028C800F3D90320C6E00025D6E7144A136843F479
:1028D80080731360FFF734FD0646104B1B6813F432
:1028E800807FCED1FFF72CFD801B0228F5D903206D
:1028F800B0E0084A136F43F001031367CFE7054BB5
:102908001A6F42F004021A671A6F42F001021A673E
:10291800C5E700BF00380240000047420070004091
:10292800FFF70EFD0646524B1B6F13F0020F08D03F
:10293800FFF706FD801B41F288339842F3D9032044
:1029480088E0EDB9A369002B00F08380484A9268BB
:1029580002F00C02082A51D0022B17D0454B002256
:102968001A66FFF7EDFC0446414B1B6813F0007F25
:1029780042D0FFF7E5FC001B0228F5D9032069E0E7
:102988003B4A136C23F080531364DBE7394B002276
:102998001A66FFF7D5FC0546354B1B6813F0007F18
:1029A80006D0FFF7CDFC401B0228F5D9032051E0E3
:1029B800E369226A1343626A43EA8213A26A5208ED
:1029C800013A43EA0243E26A43EA0263284A53604F
:1029D800284B01221A66FFF7B3FC0446244B1B68F8
:1029E80013F0007F06D1FFF7ABFC001B0228F5D9D6
:1029F80003202FE000202DE000202BE0012B2BD01E
:102A08001B4B5B6803F48001E269914226D103F015
:102A18003F02216A8A4223D1616A47F6C0721A408E
:102A2800B2EB811F1ED103F44031A26A5208013A69
:102A3800B1EB024F18D103F07063E26AB3EB026F97
:102A480014D1002006E001207047012002E0012097
:102A580000E0002002B070BD0120FBE70120F9E78B
:102A68000120F7E70120F5E70120F3E70120F1E76E
:102A7800003802400000474208B5264B9B6803F027
:102A88000C03042B41D0082B41D1224B5A6802F089
:102A98003F025B6813F4800F12D01E4B5968C1F3D4
:102AA80088111D480023A1FB0001FDF7A3FE194B67
:102AB8005B68C3F3014301335B00B0FBF3F008BD6F
:102AC800144B5868C0F388104FEA401CBCEB000C4C
:102AD8006EEB0E0E4FEA8E1343EA9C634FEA8C119D
:102AE800B1EB0C0163EB0E03DB0043EA5173C90041
:102AF80011EB000C43F10003990200234FEA8C20EC
:102B080041EA9C51FDF776FED1E70348D7E7034831
:102B1800D5E700BF0038024040787D010024F4006A
:102B2800002800F09B8070B50D4604464F4B1B688B
:102B380003F007038B4208D2CBB24C4A13701368D8
:102B480003F007038B4240F08B80236813F0020FD9
:102B580017D013F0040F04D0454A936843F4E053A8
:102B68009360236813F0080F04D0414A936843F434
:102B7800604393603E4A936823F0F003A1680B43D7
:102B88009360236813F0010F32D06368012B21D0C2
:102B98009A1E012A25D9364A126812F0020F61D00E
:102BA80033498A6822F0030213438B60FFF7C8FB9E
:102BB80006462F4B9B6803F00C036268B3EB820F49
:102BC80016D0FFF7BDFB801B41F288339842F0D93D
:102BD800032042E0264A126812F4003FE0D10120A7
:102BE8003BE0234A126812F0007FD9D1012034E07B
:102BF8001E4B1B6803F00703AB4207D9EAB21B4B15
:102C08001A701B6803F00703AB422DD1236813F039
:102C1800040F06D0164A936823F4E053E1680B4387
:102C28009360236813F0080F07D0114A936823F4C0
:102C38006043216943EAC1039360FFF71DFF0C4B12
:102C48009B68C3F303130B4AD35CD8400A4B186044
:102C58000A4B1868FFF728FB002070BD0120704759
:102C68000120FAE70120F8E70120F6E7003C0240DE
:102C780000380240C83F000800000020080000207B
:102C8800014B1868704700BF0000002008B5FFF727
:102C9800F7FF044B9B68C3F38223034AD35CD840F5
:102CA80008BD00BF00380240C03F000808B5FFF764
:102CB800E7FF044B9B68C3F34233034AD35CD84015
:102CC80008BD00BF00380240C03F000830B4036AA6
:102CD800026A22F0010202624268846924F0730CDD
:102CE8000C6844EA0C0423F0020C8B6843EA0C03DA
:102CF800114DA84203D005F58065A84205D123F0FF
:102D08000803CD682B4323F004030B4DA84203D0DE
:102D180005F58065A84207D122F440724D6945EA5D
:102D2800020C8A6942EA0C02426084614A68426382
:102D3800036230BC704700BF0000014030B4036A32
:102D4800026A22F4807202624268C46924F0730C39
:102D58000C6844EA0C0523F400738C6843EA0423E6
:102D6800114CA04203D004F58064A04206D123F49C
:102D78000063CC6843EA042323F480630A4CA0422E
:102D880003D004F58064A04207D122F440524C6974
:102D980042EA04128C6942EA04124260C5614A6838
:102DA800C263036230BC70470000014030B4036A5C
:102DB800026A22F4805202624468C26922F4E6423E
:102DC8000D6842EA052223F400538D6843EA05336F
:102DD800094DA84203D005F58065A84204D124F422
:102DE80080444D6944EA85144460C2614A680264BB
:102DF800036230BC704700BF0000014010B4036A92
:102E0800046A24F001040462846924F0F00C4CEA9A
:102E1800021223F00A030B438261036210BC70475D
:102E280010B4036A046A24F010040462846924F468
:102E3800704C4CEA023223F0A00343EA011382618A
:102E4800036210BC7047836823F070030B4343F0A0
:102E58000703836070477047704770477047704733
:102E6800704770B504460368DE681D6915F0020FE7
:102E780010D016F0020F0DD06FF002021A61012374
:102E8800037703689B6913F0030F5ED0FFF7E7FF32
:102E98000023237715F0040F12D016F0040F0FD07B
:102EA80023686FF004021A610223237723689B6961
:102EB80013F4407F4FD02046FFF7D1FF002323773C
:102EC80015F0080F12D016F0080F0FD023686FF016
:102ED80008021A61042323772368DB6913F0030FC0
:102EE80040D02046FFF7BBFF0023237715F0100FD3
:102EF80012D016F0100F0FD023686FF010021A616D
:102F0800082323772368DB6913F4407F31D02046F8
:102F1800FFF7A5FF0023237715F0010F02D016F065
:102F2800010F2DD115F0800F02D016F0800F2FD190
:102F380015F0400F02D016F0400F31D115F0200FD8
:102F480002D016F0200F33D170BDFFF787FF20465F
:102F580000F0CCFE9CE72046FFF780FF204600F0FB
:102F6800C5FEABE72046FFF779FF204600F0BEFE1E
:102F7800BAE72046FFF772FF204600F0B7FEC9E720
:102F880023686FF001021A612046FFF766FFC9E760
:102F980023686FF080021A61204600F0CDFCC7E775
:102FA80023686FF040021A612046FFF759FFC5E712
:102FB80023686FF020021A61204600F0BCFCC3E7CA
:102FC8000368324A904212D0B0F1804F0FD0A2F578
:102FD8007C4290420BD002F58062904207D002F505
:102FE8008062904203D002F57842904203D123F0E8
:102FF80070034A681343254A90422AD0B0F1804FA3
:1030080027D0A2F57C42904223D002F580629042FC
:103018001FD002F5806290421BD002F578429042A0
:1030280017D002F57052904213D002F58062904298
:103038000FD002F5806290420BD0A2F598329042F0
:1030480007D002F58062904203D002F58062904278
:1030580003D123F44073CA68134323F080034A69F9
:1030680013438A68C2620A688262084A904203D09F
:1030780002F58062904201D10A690263026842F057
:1030880004020260012242610360704700000140AF
:1030980040B310B5044690F83D30F3B1022384F8EC
:1030A8003D30214651F8040BFFF78AFF012384F8CD
:1030B800463084F83E3084F83F3084F8403084F855
:1030C800413084F8423084F8433084F8443084F83E
:1030D800453084F83D30002010BD80F83C30FEF7C4
:1030E8002DFEDBE70120704740B310B5044690F889
:1030F8003D30F3B1022384F83D30214651F8040BEA
:10310800FFF75EFF012384F8463084F83E3084F8E8
:103118003F3084F8403084F8413084F8423084F8F5
:10312800433084F8443084F8453084F83D3000203A
:1031380010BD80F83C30FFF78EFEDBE701207047BA
:1031480040B310B5044690F83D30F3B1022384F83B
:103158003D30214651F8040BFFF732FF012384F874
:10316800463084F83E3084F83F3084F8403084F8A4
:10317800413084F8423084F8433084F8443084F88D
:10318800453084F83D30002010BD80F83C30FFF712
:1031980063FEDBE70120704730B4036A026A22F05D
:1031A800100202624468826922F4E6420D6842EA2B
:1031B800052223F020038D6843EA0513114DA84228
:1031C80003D005F58065A84206D123F08003CD68B9
:1031D80043EA051323F040030A4DA84203D005F53E
:1031E8008065A84207D124F440644D6944EA850407
:1031F8008D6944EA8504446082614A688263036297
:1032080030BC70470000014090F83C30012B28D0BA
:1032180010B50446012380F83C300C2A1CD8DFE89E
:1032280002F0071B1B1B0C1B1B1B111B1B1B160077
:103238000068FFF74BFD00200FE00068FFF7ACFFC8
:1032480000200AE00068FFF779FD002005E000682B
:10325800FFF7ACFD002000E00120002384F83C309B
:1032680010BD0220704738B590F83C30012B66D06D
:1032780004460D46012380F83C300C2A5AD8DFE872
:1032880002F0075959591B5959593059595944008D
:103298000068FFF71BFD2268936943F008039361F8
:1032A8002268936923F0040393612268936929696A
:1032B8000B43936100203EE00068FFF76DFF226832
:1032C800936943F4006393612268936923F48063EC
:1032D800936122689369296943EA01239361002075
:1032E80029E00068FFF72AFD2268D36943F0080344
:1032F800D3612268D36923F00403D3612268D369B8
:1033080029690B43D361002015E00068FFF74EFDE3
:103318002268D36943F40063D3612268D36923F434
:103328008063D3612268D369296943EA0123D361A1
:10333800002000E00120002384F83C3038BD022042
:10334800FCE710B4846824F47F4C42EA03220A4361
:1033580042EA0C02826010BC704790F83C30012BA6
:1033680078D010B50446012380F83C30022380F859
:103378003D300268936823F47F4323F0770393601A
:103388000B68602B4CD023D8402B54D011D8202B5D
:1033980003D00AD80BB1102B05D119462068FFF7C6
:1033A80052FD002028E0012026E0302BF5D0012036
:1033B80022E0502B0AD1CA6849680068FFF71EFD51
:1033C80050212068FFF73FFD002015E0012013E0A1
:1033D800B3F5805F3AD0B3F5005F14D0702B37D1C6
:1033E800CB684A6889680068FFF7ABFF2268936872
:1033F80043F0770393600020012384F83D300023D5
:1034080084F83C3010BDCB684A6889680068FFF7CB
:1034180098FF2268936843F4804393600020EBE7A9
:10342800CA6849680068FFF7FBFC60212068FFF75D
:103438000AFD0020E0E7CA6849680068FFF7DEFC7B
:1034480040212068FFF7FFFC0020D5E70020D3E7E4
:103458000120D1E70220704701F01F014FF0010C55
:103468000CFA01FC036A23EA0C030362036A8A402C
:10347800134303627047000010B50446084600294C
:1034880042D194F83E30DBB2013B18BF0123002B38
:103498006ED1002851D1022384F83E300122014622
:1034A8002068FFF7D9FF2368334A934203D002F517
:1034B8008062934203D15A6C42F400425A642368F2
:1034C8002D4A934249D0B3F1804F46D0A2F57C42B1
:1034D800934242D002F5806293423ED002F5806268
:1034E80093423AD002F57842934236D002F57052B0
:1034F800934232D0A2F5943293422ED01A6842F009
:1035080001021A60002032E0042908D008290DD0F1
:1035180094F84130DBB2013B18BF0123B7E794F8B8
:103528003F30DBB2013B18BF0123B0E794F84030CD
:10353800DBB2013B18BF0123A9E7042805D00828FE
:1035480007D0022384F84130A8E7022384F83F30EB
:10355800A4E7022384F84030A0E79A6802F0070243
:10356800062A07D01A6842F001021A60002010BD2E
:103578000120FCE70020FAE70000014038B50446C6
:103588000D4600220068FFF767FF23681D4A934233
:1035980018D002F58062934214D02368196A41F268
:1035A8001112114208D1196A40F24442114203D162
:1035B8001A6822F001021A609DB9012384F83E308E
:1035C800002038BD196A41F211121142E5D1196A79
:1035D80040F244421142E0D15A6C22F400425A644B
:1035E800DBE7042D05D0082D07D0012384F84130EE
:1035F800E6E7012384F83F30E2E7012384F840300E
:10360800DEE700BF0000014010B504460846002967
:1036180048D194F83E30DBB2013B18BF0123002BA0
:1036280040F0A380002856D1022384F83E30226857
:10363800D36843F00203D360012201462068FFF7F4
:103648000BFF23684C4A934203D002F580629342F1
:1036580003D15A6C42F400425A642368464A9342A2
:1036680078D0B3F1804F75D0A2F57C42934271D0E7
:1036780002F5806293426DD002F58062934269D070
:1036880002F57842934265D002F57052934261D0B8
:10369800A2F5943293425DD01A6842F001021A6092
:1036A800002061E0042908D008290DD094F84130A1
:1036B800DBB2013B18BF0123B1E794F83F30DBB21E
:1036C800013B18BF0123AAE794F84030DBB2013B65
:1036D80018BF0123A3E7042824D008282BD00223ED
:1036E80084F841300C2842D801A353F820F000BFD9
:1036F800373600087737000877370008773700082B
:10370800333700087737000877370008773700081D
:1037180045370008773700087737000877370008FB
:1037280051370008022384F83F302268D36843F0F9
:103738000403D36080E7022384F840302268D3680A
:1037480043F00803D36077E72268D36843F0100397
:10375800D36071E79A6802F00702062A09D01A684E
:1037680042F001021A60002010BD0120FCE7012090
:10377800FAE70020F8E700BF0000014038B5054629
:103788000C460C2963D8DFE801F0076262622E62FA
:103798006262346262623A000268D36823F002030C
:1037A800D360002221462868FFF756FE2B68294A75
:1037B80093422AD002F58062934226D02B68196A78
:1037C80041F21112114208D1196A40F244421142E1
:1037D80003D11A6822F001021A602CBB012385F874
:1037E8003E30002034E00268D36823F00403D3603D
:1037F800D7E70268D36823F00803D360D1E70268EB
:10380800D36823F01003D360CBE7196A41F2111291
:103818001142D3D1196A40F244421142CED15A6CB6
:1038280022F400425A64C9E7042C06D0082C09D0B7
:10383800012385F8413000200AE0012385F83F3054
:10384800002005E0012385F84030002000E0012039
:1038580038BD00BF0000014090F83C20012A3CD050
:1038680010B40346012280F83C20022280F83D2053
:1038780002685068946820F0700C086840EA0C00F0
:1038880050601A68164882421AD0B2F1804F17D099
:10389800A0F57C40824213D000F5806082420FD0B0
:1038A80000F5806082420BD000F57840824207D054
:1038B80000F57050824203D0A0F59430824204D1C2
:1038C80024F08004496821439160012283F83D2057
:1038D800002083F83C0010BC70470220704700BFEE
:1038E80000000140024690F83C30012B21D0012312
:1038F80080F83C30CB6823F440738868034323F492
:1039080080634868034323F400630868034323F48F
:1039180080530869034323F400534869034323F49D
:103928008043C9690B4311684B64002082F83C004E
:1039380070470220704770477047000010B5044672
:103948000268136923F44053C1680B431361836809
:1039580002691A4343691A43C3691A430168CB6869
:1039680023F4164323F00C031343CB600268536916
:1039780023F4407381690B4353610368314A9342CE
:1039880006D002F58062934202D0FFF77FF901E08A
:10399800FFF78CF9E369B3F5004F29D0002103182C
:1039A80049411B1841F10001C90041EA5371DB008C
:1039B800181863684FEA83024FEA937341F10001D4
:1039C800FCF718FF204AA2FB00314909642303FBD6
:1039D80011031B013233A2FB03235B0903F0F0023E
:1039E80002EB011203F00F03216813448B6010BD32
:1039F8000023021843EB0301121841F10001C9002A
:103A080041EA5271D200101841F10001626892181F
:103A18005B41FCF7EFFE0C4AA2FB00314909642325
:103A280003FB1103DB003233A2FB03235B095A00BB
:103A380002F4F87202EB011203F007032168134441
:103A48008B60D4E7001001401F85EB5160B310B5BF
:103A5800044690F8413013B3242384F84130226897
:103A6800D36823F40053D3602046FFF767FF22682A
:103A7800136923F4904313612268536923F02A03DE
:103A880053612268D36843F40053D3600020606414
:103A9800202384F8413084F84230606310BD80F8F8
:103AA8004030FEF773FBD7E70120704708B50122C5
:103AB8004FF480610148FEF7D3FD08BD001C0240A9
:103AC80008B500224FF480610148FEF7C9FD08BD22
:103AD800001C024010B54FF0000EC0F800E0C0F81E
:103AE80004E0C0F808E001240473C0F810E0DFF82F
:103AF80048E0C0F814E04FF6FF7EA0F818E04FF059
:103B0800000E80F81AE080F81BE0C161026243628F
:103B1800BDF808300385039BC362BDF810300386E7
:103B2800064B4363A7230387054AC263054A026419
:103B38000A68936210BD00BF6666663D002474493A
:103B4800000034449A99593F10B584B00C4C4FF496
:103B5800006302930194009323460C2209490A4802
:103B6800FFF7B8FF4FF400530293019400932346E4
:103B7800002206490648FFF7ADFF04B010BD00BF9C
:103B8800001002400002002020030020B80100209D
:103B9800DC02002010B50446016AC069FFF734FD55
:103BA800216AE069FFF768FC0123E37610BD10B5D0
:103BB8000446016AC069FFF7E1FD216AE069FFF781
:103BC800DDFC0023E37610BD08B590F90C308B427C
:103BD80008D0B3F1FF3F06D0012B07D0018EC06A91
:103BE800FEF744FD08BD01230373F7E7FF230373C2
:103BF800F4E738B504460D4600212846FCF78CFD4D
:103C080040BB01212046FFF7DFFFA560E56B294691
:103C1800A068FCF79FFD00B1A560256C2946A06847
:103C2800FCF77AFD00B1A5606169606BFCF7D6FB13
:103C3800A168FCF787FCFCF7BDFD80B22083E3692F
:103C48001B685862236A73B9238BE26912685B08A0
:103C5800536338BD4FF0FF312046FFF7B5FF05F13C
:103C68000045A560D2E7042B07D0082B0BD0238B87
:103C7800E26912685B081364EBE7238BE269126858
:103C88005B089363E5E7238BE26912685B08D363FB
:103C9800DFE710B50446837E43B1C37E33B190F9A4
:103CA8000C30B3F1FF3F11D0012B15D021682069EA
:103CB800FCF78AFAFCF758FD0028B8BF4042FCF729
:103CC80039FB6169FCF732FD60B910BD41690068D4
:103CD800FCF77AFA2060E9E741690068FCF776FAB0
:103CE8002060E3E72046FFF762FFEEE708B50268C9
:103CF800084B9A4200D008BD037F012B05D0042B46
:103D0800F9D10548FFF7C5FFF5E70448FFF7C1FFFC
:103D1800F1E700BF00000140DC0200202003002082
:103D280008B5FFF711FF08BD08B50A48FFF78EFE72
:103D38000948FFF78BFE0948FFF72CFF0848FFF7F3
:103D480029FF04210748FFF797FB0A20FEF7FEFA30
:103D580008BD00BF9002002048020020DC020020BD
:103D6800200300207001002070B5FFF79FFE0F4D63
:103D78000F4E29463046FFF73CFF0E4C2946204699
:103D8800FFF737FF4FF47A70FEF7E0FAFFF798FE77
:103D9800094D29463046FFF72CFF29462046FFF7F4
:103DA80028FF4FF47A70FEF7D1FA70BD0000704119
:103DB800DC02002020030020000070C108B50620A6
:103DC80000F034F80120FDF7B1FF024403469342A6
:103DD80000D1704703F8011BF9E71F2938B50546DC
:103DE8000C4604D9162303604FF0FF3038BDD0F8D5
:103DF800382112B152F821304BB9284600F030F87A
:103E0800224601462846BDE8384000F017B8012B85
:103E18000AD0591C03D1162303600120E6E70021CC
:103E280042F82410204698470020DFE7024B01465D
:103E38001868FFF7D2BF00BF0C00002038B5074D47
:103E480000230446084611462B60FDF767FF431C14
:103E580002D12B6803B1236038BD00BF9C04002049
:103E6800FDF75ABF014B1868704700BF0C000020CF
:103E780070B50D4D0D4C641BA4100026A64209D147
:103E88000B4D0C4C00F08CF8641BA4100026A642C5
:103E980005D170BD55F8043B98470136EEE755F853
:103EA800043B98470136F2E74441000844410008C2
:103EB8004441000850410008704770470A44914245
:103EC80000F1FF3300D1704710B511F8014B03F82A
:103ED800014F9142F9D110BD024B13B1024800F0D5
:103EE80005B8704700000000013F000800230146A4
:103EF8001A46184600F014B838B5074D074C641B2D
:103F0800A4101CB9BDE8384000F050B8013C55F881
:103F180024309847F5E700BF504100085441000895
:103F28002DE9F047DFF86CA00646DAF8000098465D
:103F38000F469146FFF7C0FF174B1C680CB9174C8A
:103F48001C606568DAF800001F2D05DDFFF7B5FF76
:103F58004FF0FF30BDE8F0879EB104EB85010122E8
:103F6800C1F88890D4F88831AA401343C4F888313E
:103F7800022EC1F8088102BFD4F88C311343C4F86B
:103F88008C316B1C0235636044F82570FFF795FF90
:103F98000020DFE750010020A4040020A80400202E
:103FA800F8B500BFF8BC08BC9E467047F8B500BF1E
:083FB800F8BC08BC9E467047EE
:103FC00000000000010203040000000000000000E7
:083FD0000102030406070809C1
:103FD80008B10181B0B000840000000008B101817F
:103FE800B0B000840000000008B10181B0B00084C6
:103FF8000000000008B10181B0B00084000000009A
:1040080008B10181B0B000840000000008B101814E
:10401800B0B000840000000008B10181B0B0008495
:044028000000000094
:10402C0000C8FF7F0100000094CBFF7FB0A9028085
:10403C0024CCFF7FB0B0A88074CCFF7F01000000BF
:10404C0080CCFF7FB0B0AA80B4CCFF7FAE75B280BD
:10405C0084CDFF7F0100000080CDFF7FAB3F3A8015
:10406C00E0CDFF7F01000000E8CDFF7FB0B0AA805B
:10407C0024CEFF7F01000000D8CEFF7FAA0FB280B4
:10408C0054CFFF7FB0AF0880F0D1FF7F010000005C
:10409C00F4D1FF7FAC3F0380C8D4FF7F0100000048
:1040AC00A4D6FF7F00840480B8D6FF7F01000000F7
:1040BC00B4D6FF7FB0AD0480A8D9FF7FB0A8038031
:1040CC00CCD9FF7F44FFFF7FD0D9FF7F48FFFF7F14
:1040DC00DCD9FF7F01000000D0F9FF7FF0FEFF7FED
:1040EC00DCF9FF7FF4FEFF7FE8F9FF7F01000000A1
:1040FC00A0FAFF7FB0B0A880CCFAFF7FE8FEFF7F6C
:10410C00EEFAFF7FA908B18086FBFF7FB0B0A880D4
:10411C00D8FBFF7FDCFEFF7F04FCFF7F010000006B
:10412C0004FCFF7FD8FEFF7F3CFCFF7FB0B0AA8071
:08413C0088FCFF7F0100000078
:0C414400E13E0008AD010008293D000824
:0441500089010008D9
:104154000024F40001000000100000001000002002
:104164000000000064030020CC030020340400207D
:10417400000000000000000000000000000000003B
:10418400000000000000000000000000000000002B
:10419400000000000000000000000000000000001B
:1041A400000000000000000000000000000000000B
:1041B40000000000000000000000000000000000FB
:1041C40000000000000000000000000000000000EB
:1041D40000000000000000000000000000000000DB
:1041E40000000000000000000000000000000000CB
:1041F40000000000000000000100000000000000BA
:104204000E33CDAB34126DE6ECDE05000B0000007E
:10421400000000000000000000000000000000009A
:10422400000000000000000000000000000000008A
:10423400000000000000000000000000000000007A
:10424400000000000000000000000000000000006A
:10425400000000000000000000000000000000005A
:10426400000000000000000000000000000000004A
:10427400000000000000000000000000000000003A
:10428400000000000000000000000000000000002A
:10429400000000000000000000000000000000001A
:0442A400A004002052
:040000050800225D70
:00000001FF
